:020000040800F2
:10000000D820002089010008DD2100081B200008FD
:10001000D92100088D030008EF250008000000002A
:10002000000000000000000000000000652400083F
:10003000CD03000800000000E1210008672400084B
:10004000A3010008A3010008A3010008A301000800
:10005000A3010008A3010008A3010008A3010008F0
:10006000A3010008A3010008A3010008A3010008E0
:10007000A301000891030008A3010008A3010008E0
:10008000A3010008A301000891020008A3010008D1
:10009000A3010008A3010008A3010008A3010008B0
:1000A000A3010008A3010008A3010008A3010008A0
:1000B000A3010008A3010008F5240008A30100081B
:1000C000A3010008A3010008A3010008A301000880
:1000D000A3010008A3010008A3010008A301000870
:1000E000A3010008A3010008A301000800F002F822
:1000F00000F03AF80AA090E8000C82448344AAF188
:100100000107DA4501D100F02FF8AFF2090EBAE885
:100110000F0013F0010F18BFFB1A43F0010318473B
:100120007026000090260000103A24BF78C878C1DD
:10013000FAD8520724BF30C830C144BF04680C60ED
:10014000704700000023002400250026103A28BF35
:1001500078C1FBD8520728BF30C148BF0B60704739
:100160001FB51FBD10B510BD00F058F81146FFF7C0
:10017000F7FF02F05BFA00F076F803B4FFF7F2FF46
:1001800003BC00F07DF8000009488047094800479B
:10019000FEE7FEE7FEE7FEE7FEE7FEE7FEE7FEE737
:1001A000FEE7FEE704480549054A064B7047000094
:1001B000F3240008ED000008D81A0020D820002001
:1001C000D81C0020D81C00204FF0000200B51346B8
:1001D00094469646203922BFA0E80C50A0E80C5067
:1001E000B1F12001BFF4F7AF090728BFA0E80C5018
:1001F00048BF0CC05DF804EB890028BF40F8042B11
:1002000008BF704748BF20F8022B11F0804F18BF7D
:1002100000F8012B7047704770477047754600F033
:100220002BF8AE4605006946534620F00700854688
:1002300018B020B5FFF7B6FFBDE820404FF000062C
:100240004FF000074FF000084FF0000B21F00701BE
:10025000AC46ACE8C009ACE8C009ACE8C009ACE801
:10026000C0098D46704710B50446AFF300802046A4
:10027000BDE81040FFF781BF00487047781A0020A2
:1002800001491820ABBEFEE72600020070470000BF
:1002900010B5024800F06EF910BD00002C000020DF
:1002A00070B5044600252068806800F0010018B38E
:1002B0002068806820F001002168886000F076FEE8
:1002C000054613E000F072FE401B02280ED920689C
:1002D000806800F0010048B1A06A40F01000A06200
:1002E000E06A40F00100E062012070BD2068806893
:1002F00000F001000028E5D10020F6E738B50446FB
:100300000025002000902068806800F0010078BB84
:100310002068806840F00100216888601948006802
:100320001949B0FBF1F0009002E00098401E0090E7
:1003300000980028F9D100F039FE054619E000F0D8
:1003400035FE401B022814D92068806800F00100A7
:1003500078B9A06A40F01000A062E06A40F00100A5
:10036000E06200BF002084F8240000BF012038BDF7
:1003700005E02068806800F001000028DFD0002040
:10038000F5E700002800002040420F0000BFFEE714
:1003900010B5024800F02AFB10BD0000B400002098
:1003A00030B590F840500124AC40C56B6C600468D7
:1003B00063604468102C04D10468A2600468E160A2
:1003C00003E00468A1600468E26030BD704772B663
:1003D00000BFFEE77047000038B50246002300204A
:1003E000009000BF92F82400012801D1022038BDFE
:1003F000012082F8240000BF4868072812D2106844
:10040000406B0C79641E04EB84051F24AC40A043B0
:100410000D796D1E05EB85050C68AC402043146812
:10042000606327E048680D2812D21068006B0C79D1
:10043000E41F04EB84051F24AC40A0430D79ED1F9D
:1004400005EB85050C68AC4020431468206311E07F
:100450001068C06A0C790D3C04EB84051F24AC4085
:10046000A0430D790D3D05EB85050C68AC4020439C
:100470001468E06208680A2812D31068C0680C7813
:100480000A3C04EB44050724AC40A0430D780A3D28
:1004900005EB45058C68AC4020431468E0600FE034
:1004A000106800690C7804EB44050724AC40A043B5
:1004B0000D7805EB45058C68AC402043146820613D
:1004C0000868102802D00868112827D1174C106836
:1004D000A0421ED11068806800F40000F0B91068D6
:1004E000806840F400001468A0600868102815D1E6
:1004F0000F4800680F4CB0FBF4F000EB80004000A8
:10050000009002E00098401E009000980028F9D169
:1005100004E0906A40F020009062012300BF0020B8
:1005200082F8240000BF184661E700000024014063
:100530002800002040420F0070B5044609480068BA
:10054000401C08490860204600F010F80646304676
:1005500001F05CFE05461DB1034800F081F900E0A2
:1005600000BF70BD0C0000202C0000200146086870
:10057000C06C704710B504462068406800F0200049
:1005800020282FD12068006800F00200022829D11D
:10059000A06A00F0100018B9A06A40F40070A062D0
:1005A0002068806800F46020B0F5602F13D1207BB4
:1005B00088B92068406820F0200021684860A06A5F
:1005C00020F48070A062A06A00F4805018B9A06A7C
:1005D00040F00100A0622046FFF7AEFF6FF012006E
:1005E000216808602068406800F0800080283BD1C6
:1005F0002068006800F00400042835D1A06A00F0EB
:10060000100018B9A06A40F40050A0622068806809
:1006100000F4E040B0F5E04F0DD02068406800F4F1
:100620008060D0B92068806800F46020B0F5602F49
:1006300013D1207B88B92068406820F080002168B1
:100640004860A06A20F48050A062A06A00F4807024
:1006500018B9A06A40F00100A0622046FFF7BAFE78
:100660006FF00C00216808602068406800F04000CE
:1006700040280FD12068006800F0010050B1A06A46
:1006800040F48030A062204600F0A8F86FF001002E
:100690002168086010BD00002DE9F04104460027E4
:1006A00000250026A84614B90120BDE8F081A06805
:1006B00010B1207D00B100BFA06A30B90020E06217
:1006C00084F82400204600F08BF82046FFF7E8FD70
:1006D0000746A06A00F01000002873D1002F71D1E6
:1006E000A06A20F4885040F00200A062E1696068CE
:1006F0000843217B40EA41000643A068B0F5807FB3
:1007000002D0A068012802D14FF4807000E00020E0
:100710000543207D012811D1207B38B9A069401EF6
:100720004FF4006141EA4030054307E0A06A40F021
:100730002000A062E06A40F00100E06220684068AA
:1007400020F4694028432168486020688068214976
:100750000840304321688860A068B0F5807F02D0EF
:10076000A068012802D14FF4807000E00020B0F5AD
:10077000807F03D1208A401E4FEA00582068C06A5B
:1007800020F4700040EA08002168C8622068806890
:1007900011490840B04208D10020E062A06A20F070
:1007A000020040F00100A06211E0A06A20F0020007
:1007B00040F01000A062E06A40F00100E062012712
:1007C00005E0FFE7A06A40F01000A062012738466C
:1007D0006BE70000FDF7E1FFFE0E1FFF7047000012
:1007E00010B586B004460020029003900490059056
:1007F0001849206888422AD100BF1748806940F410
:100800000070154988610846806900F40070019005
:1008100000BF00BF00BF0846806940F00800886143
:100820000846806900F00800019000BF00BF022068
:1008300002900320039002A9084800F027FA002242
:100840001146122000F038FC122000F025FC06B002
:1008500010BD00000024014000100240000C0140C7
:1008600070B50446002500BF94F82400012801D18A
:10087000022070BD012084F8240000BF2046FFF74D
:100880003DFD0546002D7DD1A06A40F601618843FB
:1008900040F48070A0623F492068884208D13E48F9
:1008A000006800F4702008B9012002E0002000E098
:1008B000012078B1A06A20F48010A062206840680E
:1008C00000F4806000B3A06A20F4005040F480502F
:1008D000A06219E0A06A40F48010A0622E49091FAE
:1008E0002068884203D02B492068884204D12A48D6
:1008F000006800F4806000E0002028B1A06A20F4C5
:10090000005040F48050A062A06A00F4805020B1F2
:10091000E06A20F00600E06201E00020E06200BF33
:10092000002084F8240000BFC01E216808602068F1
:10093000406840F02000216848602068806800F42A
:100940006020B0F5602F16D112492068884208D186
:100950001148006800F4702008B9012002E000206E
:1009600000E0012038B12068806840F4A0002168D0
:1009700088600CE006E02068806840F48010216800
:10098000886004E000BF002084F8240000BF2846EF
:100990006FE70000002801400424014010B5044620
:1009A0000CB9012010BD607920B9002020712046CB
:1009B00000F004F8012060710020F3E708B5094A4F
:1009C000016891420DD100BF0749496941F04001DA
:1009D000054A51611146496901F04001009100BF8B
:1009E00000BF08BD003002400010024070B5044650
:1009F000E06B05682068066894F840100420884081
:100A00002840002846D006F00400002842D0206884
:100A1000006800F0200028B92068006820F0040079
:100A20002168086057492068884201D1042027E0E6
:100A3000544914312068884201D1402020E05149B6
:100A400028312068884201D1001519E04D493C3118
:100A50002068884202D14FF4804011E0494950316A
:100A60002068884202D14FF4802009E04549643172
:100A70002068884202D14FF4800001E04FF080608E
:100A8000404908394860E06A00287AD02046E16A87
:100A9000884776E094F84010022088402840A0B3B0
:100AA00006F0020088B32068006800F0200040B91A
:100AB0002068006820F00A0021680860012084F89E
:100AC000210030492068884201D1022028E02D49C8
:100AD00014312068884201D1202021E029492831A1
:100AE0002068884201D140151AE026493C3120682F
:100AF000884202D14FF4005012E022495031206860
:100B0000884203D14FF400300AE017E01D496431F8
:100B10002068884202D14FF4001001E04FF00070CD
:100B200018490839486000BF002084F8200000BF41
:100B3000A06A30B32046A16A884722E094F84010AA
:100B4000082088402840E0B106F00800C8B12068BD
:100B5000006820F00E002168086094F84010012021
:100B60008840E16B48600120A06384F8210000BF49
:100B7000002084F8200000BF206B10B12046216BBC
:100B8000884770BD080002400146002209B90120D3
:100B90007047164B0868C01A1423B0FBF3F08000AE
:100BA000086412480838C863022081F821000868E8
:100BB000026843F6F0708243D1E901031843CB6821
:100BC00018430B6918434B6918438B691843CB6969
:100BD000184302430868026000208863012081F8FE
:100BE0002100002081F8200000BFD1E7080002406A
:100BF0002DE9F04104460D4616461F464FF0000809
:100C000000BF94F82000012802D10220BDE8F08145
:100C1000012084F8200000BF94F8210001282CD185
:100C2000022084F821000020A0632068006820F0E2
:100C30000100216808603B46324629462046FFF7FE
:100C4000AFFBE06A30B12068006840F00E00216818
:100C500008600BE02068006820F00400216808604C
:100C60002068006840F00A00216808602068006879
:100C700040F001002168086006E000BF002084F811
:100C8000200000BF4FF002084046BFE72DE9F847BB
:100C90000346002294466EE14FF0010808FA02F480
:100CA000D1F8008008EA0400A0427DD1DFF8DCA280
:100CB000D1F80480A8EB0A09D0453AD014DCB8F189
:100CC000030F50D009DCB8F1000F31D0B8F1010F9B
:100CD0001CD0B8F1020F49D120E0B8F1110F18D0A3
:100CE000B8F1120F42D11EE0B9F5881F25D006DCFD
:100CF000B9F5803F20D0B9F5801F37D11AE0B9F59A
:100D0000001F18D0B9F5041F30D117E0D1F80CC07E
:100D10002DE0D1F80C8008F1040C28E0D1F80C800B
:100D200008F1080C23E0D1F80C8008F10C0C1EE04F
:100D300000BF00BF00BF00BF00BF00BFD1F80880E8
:100D4000B8F1000F02D14FF0040C0BE0D1F808808D
:100D5000B8F1010F03D14FF0080C1C6102E04FF015
:100D6000080C5C6103E04FF0000C00E000BF00BF26
:100D7000FF2801D8984601E003F104084646FF2801
:100D800002D84FEA820803E0A2F108084FEA880877
:100D90004746D6F800804FF00F0909FA07F928EA0C
:100DA00009080CFA07F900E088E048EA0908C6F8E3
:100DB0000080D1F8048008F08058B8F1805F7DD1C0
:100DC00000BFDFF8CC81D8F8188048F00108DFF8C0
:100DD000C091C9F81880C846D8F8188008F00108F2
:100DE000CDF8008000BF00BF4FEAB9384FEA920942
:100DF00058F829504FEA82784FEA18794FF00F08D7
:100E000008FA09F825EA0805DFF88881434502D188
:100E10004FF0000816E0DFF88081434502D14FF023
:100E200001080FE0DFF87481434502D14FF002085A
:100E300008E0DFF86C81434502D14FF0030801E080
:100E40004FF004084FEA82794FEA197908FA09F855
:100E500048EA0505DFF84C814FEA920948F8295025
:100E6000D1F8048008F48038B8F5803F0AD1DFF863
:100E70003881D8F8008048EA0008DFF82C91C9F8DA
:100E8000008009E0DFF82081D8F8008028EA000817
:100E9000DFF81491C9F80080D1F8048008F4003814
:100EA000B8F5003F10D1DFF8008108F10408D8F848
:100EB000008048EA0008DFF8F09000E05AE009F10D
:100EC0000409C9F800800DE0DFF8DC8008F10408AF
:100ED000D8F8008028EA0008DFF8CC9009F104096E
:100EE000C9F80080D1F8048008F48018B8F5801F94
:100EF0000ED1DFF8B48008F10808D8F8008048EA7D
:100F00000008DFF8A49009F10809C9F800800DE095
:100F1000DFF8948008F10808D8F8008028EA000873
:100F2000DFF8849009F10809C9F80080D1F804803D
:100F300008F40018B8F5001F0ED1DFF86C8008F136
:100F40000C08D8F8008048EA0008DFF85C9009F146
:100F50000C09C9F800800DE0DFF84C8008F10C089E
:100F6000D8F8008028EA0008DFF83C9009F10C0965
:100F7000C9F80080521CD1F8008028FA02F8B8F1B4
:100F8000000F7FF489AEBDE8F88700000000111063
:100F90000010024000080140000C01400010014018
:100FA00000140140080001400004014001480068AD
:100FB000704700001C0000200348006803490978BE
:100FC00008440149086070471C00002024000020EC
:100FD00010B50848006840F010000649086003207A
:100FE00000F0A8F80F2000F007F800F02BF8002020
:100FF00010BD00000020024070B504460E48007885
:101000004FF47A71B1FBF0F00C490968B1FBF0F5CF
:10101000284600F0B8FD08B1012070BD102C07D2A1
:1010200000222146501E00F047F80548046001E008
:101030000120F2E70020F0E7240000202800002033
:101040002000002008B500BF1148806940F0010071
:101050000F4988610846806900F00100009000BFD8
:1010600000BF00BF0846C06940F08050C861084614
:10107000C06900F08050009000BF00BF00BF05496C
:10108000486820F0E06040F00070486000BF08BD94
:10109000001002400000014001460846002809DB1C
:1010A00000F01F0301229A4043099B0003F1E02353
:1010B000C3F8002100BF70472DE9F05F80460D4660
:1010C0001646002701F096FA074639462A46334667
:1010D00001F00700C0F1070ABAF1040F02D94FF07E
:1010E000040A01E0C0F1070AD14600F1040ABAF18E
:1010F000070F02D24FF0000A01E0A0F1030AD44624
:101100004FF0010A0AFA09FAAAF1010A0AEA020AE8
:101110000AFA0CFA4FF0010B0BFA0CFBABF1010BC6
:101120000BEA030B4AEA0B042146404601F06AFA37
:10113000BDE8F09F00BF00F00702064B19684FF6AC
:10114000FF031940044B0B4343EA0221014B196092
:1011500000BF70470CED00E00000FA05F8B504464A
:1011600000260025207800F0010000286BD0002721
:101170004348C06900F0805070B900BF4048C06962
:1011800040F080503E49C8610846C06900F0805078
:10119000009000BF00BF01273A48006800F480704B
:1011A000B0B93848006840F4807036490860FFF7ED
:1011B000FDFE064606E0FFF7F9FE801B642801D914
:1011C0000320F8BD2F48006800F480700028F2D09A
:1011D0002B48006A00F440752DB3A08800F44070DD
:1011E000A84220D02648006A20F4407501202649F4
:1011F0000860002008602248056205F0010090B1F7
:10120000FFF7D4FE064608E0FFF7D0FE801B41F250
:101210008831884201D90320D3E71948006A00F0D9
:1012200002000028F0D01648006A20F4407061687F
:10123000084313490862012F04D10846C06920F011
:101240008050C86100BF207800F00200022807D15A
:101250000B48406820F44040A168084308494860B2
:10126000207800F01000102807D10548406820F4CD
:101270008000E1680843024948600020A1E70000BF
:1012800000100240007000404004424270B5044625
:101290000D460CB9012070BD5A48006800F00700E7
:1012A000A8420ED25748006820F00700284355494D
:1012B00008600846006800F00700A84201D001203D
:1012C000E9E7207800F0020002281DD1207800F024
:1012D0000400042805D14C48406840F4E0604A49C5
:1012E0004860207800F00800082805D1464840688A
:1012F00040F46050444948604348406820F0F000A2
:10130000A168084340494860207800F0010078B3A4
:101310006068012806D13C48006800F4003090B9AC
:101320000120B8E76068022806D13748006800F05D
:10133000007040B90120AEE73348006800F00200B9
:1013400008B90120A7E73048406820F00300616831
:1013500008432D494860FFF729FE064609E0FFF7DC
:1013600025FE801B41F28831884202D9032092E792
:1013700007E02548406800F00C006168B0EB810F81
:10138000EDD12048006800F00700A8420ED91D48A2
:10139000006820F0070028431A49086008460068E2
:1013A00000F00700A84201D0012074E7207800F087
:1013B0000400042807D11448406820F4E060E16884
:1013C000084311494860207800F00800082808D137
:1013D0000D48406820F46050216940EAC1000A4984
:1013E000486000F019F808494968C1F30311074A39
:1013F000515CC8400649086006480068FFF7FCFDDC
:10140000002048E700200240001002407827000832
:101410002800002020000020F0B585B00FF26C0CF1
:101420009CE8E01001A8A0E8E0101CA52D6800953C
:1014300000210022002300240020194D696801F0DA
:101440000C05F5B1042D02D0082D19D101E0154885
:1014500019E001ADC1F38346AC5D01F4803555B1AF
:101460000F4D6D68C5F340451DF805200D4D6543D2
:10147000B5FBF2F302E00C4D04FB05F3184602E065
:1014800000BF084800BF00BF05B0F0BD020304055F
:10149000060708090A0B0C0D0E0F101001020000C0
:1014A0000010024000127A0000093D00F8B5044621
:1014B0000CB90120F8BD207800F00100002878D098
:1014C000F848406800F00C0004280CD0F54840684B
:1014D00000F00C00082811D1F248406800F4803078
:1014E000B0F5803F0AD1EF48006800F400300028D2
:1014F0005FD0606800285CD10120DBE700BF606836
:10150000B0F5803F06D1E748006840F48030E549F7
:10151000086028E0606858B9E248006820F480302C
:10152000E04908600846006820F4802008601AE05E
:101530006068B0F5A02F0BD1DA48006840F4802035
:10154000D84908600846006840F4803008600AE026
:10155000D448006820F48030D2490860084600680A
:1015600020F48020086000BF606888B1FFF71EFD8E
:10157000054606E0FFF71AFD401B642801D9032049
:1015800098E7C848006800F400300028F2D010E066
:10159000FFF70CFD054606E0FFF708FD401B642839
:1015A00001D9032086E7BF48006800F40030002816
:1015B000F2D1207800F00200022857D1B9484068E3
:1015C00000F00C0050B1B748406800F00C0008284B
:1015D00018D1B448406800F4803098B9B148006828
:1015E00000F0020020B12069012801D0012061E74C
:1015F000AC48006820F0F800616940EAC100A949E0
:10160000086033E02069E8B10120A7490860FFF7CE
:10161000CDFC054606E0FFF7C9FC401B022801D9B6
:10162000032047E79F48006800F002000028F2D03E
:101630009C48006820F0F800616940EAC1009949BF
:10164000086013E0002098490860FFF7AFFC0546EA
:1016500006E0FFF7ABFC401B022801D9032029E775
:101660009048006800F002000028F2D1207800F0D5
:10167000080008282DD1A069B8B101208B49086065
:10168000FFF794FC054606E0FFF790FC401B02289C
:1016900001D903200EE78348406A00F002000028C9
:1016A000F2D0012000F09EFD13E000207F49086089
:1016B000FFF77CFC054606E0FFF778FC401B02289C
:1016C00001D90320F6E67748406A00F002000028BE
:1016D000F2D1207800F00400042873D1002771486B
:1016E000C06900F0805070B900BF6E48C06940F01A
:1016F00080506C49C8610846C06900F08050009075
:1017000000BF00BF01276A48006800F48070B0B9CC
:101710006748006840F4807065490860FFF746FC40
:10172000054606E0FFF742FC401B642801D9032070
:10173000C0E65F48006800F480700028F2D000BF67
:10174000E068012806D15748006A40F00100554979
:10175000086227E0E06858B95248006A20F00100AA
:10176000504908620846006A20F00400086219E047
:10177000E06805280BD14B48006A40F00400494955
:1017800008620846006A40F0010008620AE0454825
:10179000006A20F00100434908620846006A20F010
:1017A0000400086200BFE068A0B1FFF7FFFB054638
:1017B00009E0FFF7FBFB401B41F28831884202D968
:1017C000032077E622E03748006A00F00200002894
:1017D000EFD012E0FFF7EAFB054608E0FFF7E6FB73
:1017E000401B41F28831884201D9032062E62D482E
:1017F000006A00F002000028F0D1012F05D129482D
:10180000C06920F080502749C86100BFE069C8B3B3
:101810002448406800F00C00082860D0E0690228E5
:1018200048D1002020490866FFF7C0FB054606E0C6
:10183000FFF7BCFB401B022801D903203AE61948F8
:10184000006800F000700028F2D1206AB0F5803FF7
:1018500007D11448406820F40030A16808431149BA
:101860004860D4E9080108430E49496821F474111D
:1018700008430C49486001200B490866FFF796FBB6
:10188000054607E03DE0FFF791FB401B022801D928
:1018900003200FE60348006800F000700028F2D033
:1018A0002FE000000010024000004242800442424B
:1018B00000700040002014490866FFF777FB0546DA
:1018C00006E0FFF773FB401B022801D90320F1E576
:1018D0000E48006800F000700028F2D111E0E069C5
:1018E000012800D1E6E50948466806F48031206AFF
:1018F000814204D106F47011606A814201D0012056
:10190000D8E50020D6E50000000042420010024069
:10191000704710B504460CB9012010BD606A38B993
:101920006068B0F5827F00D105E00021E16102E04E
:101930000021216161610021A16294F8510028B960
:10194000002084F85000204600F042F8022084F87D
:1019500051002068006820F0400021680860A088DD
:1019600000F48270218901F404410843A18901F443
:1019700000610843217C01F002010843217D01F050
:1019800001010843218B01F400710843217F01F01C
:10199000380108432021095D01F080010843218DB1
:1019A00001F400510843216808600421A06901EA9C
:1019B0001040216848602068C06920F400602168F8
:1019C000C86100206065012084F851000020A4E770
:1019D00010B586B004460020029003900490059054
:1019E0002149206888423DD100BF2048806940F4E9
:1019F00080501E4988610846806900F4805001903B
:101A000000BF00BF00BF0846806940F00400886145
:101A10000846806900F00400019000BF00BFA020CC
:101A20000290022003900320059002A91048FFF7BE
:101A30002DF91048104908601020486000210E4818
:101A400081608021C1600021016141618161C161CA
:101A5000FFF79AF808B1FEF7BAFC00BF0648A06489
:101A6000446200BF06B010BD0030014000100240CB
:101A70000008014030000240B40000202DE9F04190
:101A800004460E461546002700BF94F85000012872
:101A900002D10220BDE8F081012084F8500000BF8F
:101AA00094F85100012801D0022758E006B10DB981
:101AB000012754E0032084F851000020606526636C
:101AC000A586E586A06360642064A087E087A0689F
:101AD000B0F5004F0BD12068006820F0400021686D
:101AE00008602068006840F48040216808601F4852
:101AF000A16CC8621E48A16C88621E48A16C086374
:101B00000020A16C4863E38ED4F800C00CF10C02F5
:101B1000216BA06CFFF76CF840B1606D40F01000D5
:101B200060650127012084F8510018E020680068F2
:101B300000F04000402805D02068006840F04000D8
:101B4000216808602068406840F0200021684860F3
:101B50002068406840F002002168486000BF00BF74
:101B6000002084F8500000BF384693E7D9220008CF
:101B7000E7220008B12200080121014A11707047D4
:101B800009000020704770B504462546681EB0F174
:101B9000807F01D301200FE0681E4FF0E0214861F3
:101BA0000F214FF0FF3000F02DFD00204FF0E0211D
:101BB000886107200861002070BD704770470000F1
:101BC00030B502460B4600BF92F83C00012801D117
:101BD000022030BD012082F83C0000BF022082F8C4
:101BE0003D00106844681068816824F0700418682B
:101BF000044310684460104D1068A8420BD0106870
:101C0000B0F1804F07D00D4D1068A84203D00C4DA5
:101C10001068A84205D121F080015868014310687E
:101C20008160012082F83D0000BF002082F83C0066
:101C300000BF00BFCDE70000002C014000040040C1
:101C40000008004010B504460CB9012010BD94F8FE
:101C50003D0028B9002084F83C00204600F026F81A
:101C6000022084F83D00211D206800F04BFC01207B
:101C700084F8460000BF84F83E0001213F20015552
:101C8000402001554120015500BF00BF012084F8CC
:101C9000420043200155442001554520015500BF15
:101CA000012084F83D000020D0E7000038B504464C
:101CB0000D492068884215D100BF0C48C06940F02A
:101CC00004000A49C8610846C06900F00400009099
:101CD00000BF00BF002211461E20FFF7EDF91E20B5
:101CE000FFF7DAF938BD000000080040001002409C
:101CF000014691F83D00012801D0012070470220E3
:101D000081F83D000868C06840F001000B68D860A9
:101D1000124B086898420BD00868B0F1804F07D08A
:101D20000F4B0868984203D00E4B086898420CD1BC
:101D30000868806800F00702062A0CD0086800686E
:101D400040F001000B68186005E00868006840F08A
:101D500001000B6818600020D0E70000002C014053
:101D600000040040000800402DE9F04104460D4603
:101D700000BF94F83C00012802D10220BDE8F081A8
:101D8000012084F83C0000BF022084F83D00206858
:101D9000866826F0770626F47F46206886602868E5
:101DA000502833D00CDC202850D004DC00284BD045
:101DB000102851D149E0302849D040284CD139E091
:101DC00060282DD0702807D0B0F5805F03D0B0F523
:101DD000005F41D10DE040E0D5E902136A68206858
:101DE00000F0CAFB2068866846F0770620688660A7
:101DF00033E0D5E902136A68206800F0BDFB206873
:101E0000806840F480402168886026E0EA6869685C
:101E1000206800F0C5FB5021206800F0B8FB1CE0F2
:101E2000EA686968206800F0CEFB6021206800F055
:101E3000AEFB12E0EA686968206800F0B1FB40215F
:101E4000206800F0A4FB08E000BF00BF00BF2968C5
:101E5000206800F09CFB00E000BF00BF012084F878
:101E60003D0000BF002084F83C0000BF00BF85E7B4
:101E7000704710B5044620680069C0F34000D8B12F
:101E80002068C068C0F34000B0B16FF00200216864
:101E90000861012020772068806900F0030018B1F4
:101EA0002046FFF7E5FF05E0204600F0ADF82046AC
:101EB00000F0ABF80020207720680069C0F38000B4
:101EC000D8B12068C068C0F38000B0B16FF00400E2
:101ED00021680861022020772068806900F4407042
:101EE00018B12046FFF7C4FF05E0204600F08CF84B
:101EF000204600F08AF80020207720680069C0F3AF
:101F0000C000D8B12068C068C0F3C000B0B16FF0A5
:101F1000080021680861042020772068C06900F06B
:101F2000030018B12046FFF7A3FF05E0204600F0AC
:101F30006BF8204600F069F80020207720680069DF
:101F4000C0F30010D8B12068C068C0F30010B0B171
:101F50006FF0100021680861082020772068C069B0
:101F600000F4407018B12046FFF782FF05E02046DC
:101F700000F04AF8204600F048F80020207720685A
:101F8000006900F0010058B12068C06800F001004D
:101F900030B16FF0010021680861204600F036F88A
:101FA00020680069C0F3C01058B12068C068C0F351
:101FB000C01030B16FF08000216808612046FFF743
:101FC000FCFD20680069C0F3801058B12068C0682B
:101FD000C0F3801030B16FF04000216808612046E6
:101FE00000F01AF820680069C0F3401058B120686A
:101FF000C068C0F3401030B16FF020002168086164
:102000002046FFF7DBFD10BD704770470121014AF4
:102010001170704708000020704700BFFEE7000005
:102020000EB50020009001900290124812490860FD
:10203000002111488160017301754FF46021C16175
:1020400000200D49486001210B480161FEF724FB87
:1020500008B1FEF7BCF9112000900120019000208A
:10206000029069460448FEF7B7F908B1FEF7AFF9E8
:102070000EBD0000002401402C00002010B50548D2
:10208000054908600846FEF789FC08B1FEF79FF98C
:1020900010BD0000003002400000002008B500BF65
:1020A0000A48406940F00100084948610846406913
:1020B00000F00100009000BF00BF002211460D207B
:1020C000FEF7FAFF0D20FEF7E7FF08BD0010024003
:1020D00008B500BF1348806940F0200011498861AD
:1020E0000846806900F02000009000BF00BF00BFDC
:1020F0000846806940F0040088610846806900F065
:102100000400009000BF00BF00BF0846806940F097
:10211000080088610846806900F00800009000BF50
:1021200000BF08BD0010024010B50E480E490860FF
:102130004FF48270486000210B488160C1600161EA
:1021400001214161490281612021C16100210162B7
:10215000416281620A21C162FFF7DBFB08B1FEF731
:1021600036F910BD003001405C00002000B587B09A
:10217000002003900490059006900190029014486E
:10218000144908604720486000211248816044F6E5
:102190002061C160002101618161FFF753FD08B139
:1021A000FEF715F94FF48050039003A90948FFF793
:1021B000DBFD08B1FEF70BF900200190029001A9A8
:1021C0000448FFF7FDFC08B1FEF701F907B000BDB8
:1021D00000080040F800002000BFFEE700BFFEE757
:1021E0007047000008B508490968C9084FF47A72B9
:1021F000B1FBF2F14143009100BF00BF00994A1EBC
:1022000000920029F9D108BD2800002010B5014630
:1022100021480078082801D1002010BD01F00101FB
:102220001E4802780078401C1C4B187002F0010018
:1022300018B91B4A11700120EFE71948007848408F
:1022400008B90220E9E71648007840B1154802783D
:1022500001209040144A12681043134A106011483C
:102260000078401C0F4A107010460078202811D1C9
:102270000D480268084803780078401C064C20701E
:102280000A4840F823200020074A1060054A1070D1
:102290000420C2E70320C0E710000020190000203E
:1022A0001A00002018000020140000204001002027
:1022B00070B505466C6A2068406820F0030021680C
:1022C0004860606D40F010006065012084F85100A6
:1022D0002046FFF71DFB70BD70B50446656A2846B1
:1022E000FFF750FC70BDF8B505466C6AFEF75EFE60
:1022F00006462868006800F0200020282DD02068BD
:10230000406820F02000216848602068406820F084
:1023100002002168486032466421204600F022F81D
:1023200018B1606D40F020006065A06850B900BF32
:10233000002000902068C0680090206880680090AD
:1023400000BF00BF0020E086012084F85100606DCE
:1023500018B12046FFF7DCFAF8BD2046FFF70CFC69
:1023600000BFF9E7F8B504460D4616462B46002295
:1023700080212046009600F009F828B1606D40F0F9
:10238000200060650320F8BD0020FCE72DE9F84F30
:1023900004460D4690461E46DDF82890FEF706FEE0
:1023A000A0EB0900371AFEF701FE82462C480068B0
:1023B000C0F3CB307843009045E0701C002842D039
:1023C000FEF7F4FDA0EB0A00B84200D2A7BB2068DC
:1023D000406820F0E000216848606068B0F5827FC6
:1023E0000DD1A068B0F5004F03D0A068B0F5806FA4
:1023F00005D12068006820F0400021680860A06ACC
:10240000B0F5005F0DD100BF2068006820F40050D7
:10241000216808602068006840F400502168086066
:1024200000BF012084F8510000BF002084F8500054
:1024300000BF0320BDE8F88FFFE7009800B9002730
:102440000098401E0090206880682840A84201D172
:10245000012000E000204045AFD10020EAE7000065
:1024600028000020704710B5FEF7A6FD10BD00B58E
:1024700093B0282109A8FDF7A7FE142104A8FDF7B1
:10248000A3FE00200090019002900390012009908B
:1024900000040A9000200B9001200D900220109063
:1024A000C10311914FF4E011129109A8FEF7FEFF4C
:1024B00008B1FDF78CFF0F2004900220059000204A
:1024C00006904FF48060079000200890022104A835
:1024D000FEF7DCFE08B1FDF77AFF022000908003D2
:1024E00002906846FEF73AFE08B1FDF770FF13B0A0
:1024F00000BD704710B50248FFF7BBFC10BD0000DF
:10250000F800002010B50268184B984208D0B0F1CE
:10251000804F05D0164B984202D0164B984203D1FB
:1025200022F070024B681A43104B984208D0B0F169
:10253000804F05D00E4B984202D00E4B984203D1EB
:1025400022F44072CB681A4322F080034C6943EABC
:10255000040202608B68C3620B688362034B98427B
:1025600001D10B6903630123436110BD002C0140BD
:10257000000400400008004030B50C46816821F49A
:102580007F4142EA032525432943816030BD0A4645
:10259000816821F0700142F00703194381607047A0
:1025A00030B50B461446026A056A25F0010505623E
:1025B000816921F0F00141EA041122F00A021A4374
:1025C0008161026230BD30B50B461446056A25F0C4
:1025D000100505628169026A21F4704141EA043103
:1025E00022F0A00242EA03128161026230BD00BF04
:1025F000FEE7000002480068C0F3022070470000B8
:102600000CED00E010B5002804DB0A07130E054AA4
:10261000135406E00A07140E034A00F00F031B1FB1
:10262000D45410BD00E400E018ED00E0FEF7D0FC4B
:10263000FFF71DFFFFF74CFDFFF730FDFFF774FDBF
:10264000FFF794FDFFF7ECFCFFF718FD1148FFF7CB
:102650004FFB1048FFF74CFB0F48FEF701F900F065
:1026600057F80C48FFF744FB002404E021462046BD
:1026700000F016F8641CB4F5167FF7DB00F06EF876
:10268000054640F68C2229460448FFF7F7F900BFBB
:10269000FEE70000F80000202C0000205C00002075
:1026A00030B502460B46174C247840F2A3256C4304
:1026B000154D05EB8404092505FB0340C2F30724EF
:1026C000124D55F824100C0C00F8014B0C0A00F8C0
:1026D000014B00F8011BC2F3074455F824100C0C01
:1026E00000F8014B0C0A00F8014B00F8011BD4B2B2
:1026F00055F824100C0C00F8014B0C0A00F8014BA3
:10270000017030BD1B000020600100207816002001
:1027100070B500201AE00F490F4D45F82010002138
:1027200011E040FA01F505F0010401EB41056D1CD3
:10273000EAB204FA02F3084D55F820501D43064E44
:1027400046F82050491C0829EBDB401CFF28E2DD3D
:1027500070BD0000244992007816002004480078DB
:1027600040F2A3214843034901EB80007047000079
:102770001B0000206001002000000000000000009D
:102780000102030406070809000000000102030417
:10279000B0270008000000202C00000028010008DD
:1027A000DC2700082C000020AC20000044010008B9
:1027B0000000000000000000000100000000000018
:1027C0000000000000000000000000000000000009
:0C27D00010000000010000000024F400D4
:04000005080000ED02
:00000001FF
